:020000040000FA
:04000000E7EF07F02F
:10020000005B494E464F5D202D2D2D2D2D2D2D2D82
:100210002D2D2D2D20436865636B696E6720257336
:1002200020776974682025730A000A2D2D20524515
:10023000474953544552454420454D504C4F59452C
:100240004553202D2D0A000A2D2D20574F524B4982
:100250004E4720454D504C4F59454553202D2D0AB2
:1002600000456D706C6F7965653A202573202D20EF
:1002700025730A000A75696420493A2025730A002B
:100280007569642073773A2025730A004573746199
:10029000646F3A2025630A00756964204A3A202574
:1002A000730A004D65736153696C6C6100003133F2
:1002B00033333100003237363533000033383338CA
:1002C000370000313731373900005061756C6100FB
:0D02D00000586F736500004C756100000060
:1002DE003F6E670E016E000E026E3F50170D800EC0
:1002EE00F324036E000EF420046E8CEC07F0720EF5
:1002FE00016E000E026E3F50170D8B0EF324036E2F
:10030E00000EF420046E8CEC07F03F50170D950E86
:10031E00F324D96E000EF420DA6EDF507C6E3F505F
:10032E00170D960EF324D96E000EF420DA6EDF5000
:10033E007D6E3F50170D910EF324D96E000EF420F2
:10034E00DA6EDF50786E3F50170D920EF324D96E91
:10035E00000EF420DA6EDF50796E3F50170D930EBB
:10036E00F324D96E000EF420DA6EDF507A6E3F5011
:10037E00170D940EF324D96E000EF420DA6EDF50B2
:10038E007B6E3F50170D800EF324016E000EF4208D
:10039E00026E3E50170D800EF324036E000EF420F5
:1003AE00046E8CEC07F03F50170D8B0EF324016E8C
:1003BE00000EF420026E3E50170D8B0EF324036ECA
:1003CE00000EF420046E8CEC07F03E50170D950EC7
:1003DE00F324D96E000EF420DA6E3F50170D950EF1
:1003EE00F324E16E000EF420E26EDFCFE7FF3E5005
:1003FE00170D960EF324D96E000EF420DA6E3F50D0
:10040E00170D960EF324E16E000EF420E26EDFCF90
:10041E00E7FF3E50170D910EF324D96E000EF42017
:10042E00DA6E3F50170D910EF324E16E000EF4209C
:10043E00E26EDFCFE7FF3E50170D920EF324D96E1A
:10044E00000EF420DA6E3F50170D920EF324E16E7B
:10045E00000EF420E26EDFCFE7FF3E50170D930E35
:10046E00F324D96E000EF420DA6E3F50170D930E62
:10047E00F324E16E000EF420E26EDFCFE7FF3E5074
:10048E00170D940EF324D96E000EF420DA6E3F5041
:10049E00170D940EF324E16E000EF420E26EDFCF02
:1004AE00E7FF3E50170D800EF324016E000EF42070
:1004BE00026E670E036E000E046E8CEC07F03E505B
:1004CE00170D8B0EF324016E000EF420026E720EC9
:1004DE00036E000E046E8CEC07F03E50170D950E59
:1004EE00F324D96E000EF420DA6E7CC0DFFF3E508E
:1004FE00170D960EF324D96E000EF420DA6E7DC021
:10050E00DFFF3E50170D910EF324D96E000EF4202E
:10051E00DA6E78C0DFFF3E50170D920EF324D96EBF
:10052E00000EF420DA6E79C0DFFF3E50170D930EE9
:10053E00F324D96E000EF420DA6E7AC0DFFF3E503F
:10054E00170D940EF324D96E000EF420DA6E7BC0D4
:10055E00DFFF740E346E020E356E3F50170D8B0E8C
:10056E00F324366E000EF420376E84EC08F0980EED
:10057E00346E020E356E3E50170D8B0EF324366E12
:10058E00000EF420376E84EC08F0800E346E020EEE
:10059E00356E720E366E000E376E84EC08F0120059
:1005AE0023C0D9FF24C0DAFFDECFF6FFDDCFF7FF81
:1005BE000800F550250AD8A4E7EF02F0E9EF02F0A3
:1005CE00A6EF03F023C0D9FF24C0DAFFDE2A000E07
:1005DE00DD22000E626E000E616E61C065F062C0BB
:1005EE0066F06368646823C0D9FF24C0DAFFDECFEB
:1005FE00F6FFDDCFF7FF0800F550630AD8A40AEF27
:10060E0003F00CEF03F033EF03F023C0D9FF24C047
:10061E00DAFFDE2A000EDD2225C0D9FF26C0DAFF62
:10062E00DFCF27F0020EDE26DFCF28F0000EDD2210
:10063E0027C0D9FF28C0DAFFDF502B6E21C01CF077
:10064E0022C01DF02BC01EF0BAEC07F01CC021F02A
:10065E001DC022F0C1EF03F023C0D9FF24C0DAFF82
:10066E00DECFF6FFDDCFF7FF0800F550730AD8A4F2
:10067E0043EF03F045EF03F070EF03F023C0D9FF13
:10068E0024C0DAFFDE2A000EDD2225C0D9FF26C0E7
:10069E00DAFFDFCF27F0020EDE26DFCF28F0000EC6
:1006AE00DD2227C0D9FF28C0DAFFDECF29F0DDCF4B
:1006BE002AF021C00AF022C00BF029C00CF02AC08B
:1006CE000DF09CEC04F00AC021F00BC022F0C1EF3B
:1006DE0003F023C0D9FF24C0DAFFDECFF6FFDDCF53
:1006EE00F7FF0800F550250AD8A480EF03F082EF3B
:1006FE0003F099EF03F023C0D9FF24C0DAFFDE2AFE
:10070E00000EDD22000E026E250E016E21C003F0DA
:10071E0022C004F0A2EC06F0000E226E010E216E35
:10072E00C1EF03F023C0D9FF24C0DAFFDE2A000E8A
:10073E00DD22000E226E000E216EC1EF03F023C0EB
:10074E00D9FF24C0DAFFDECFF6FFDDCFF7FF0800BA
:10075E00F550016E026A21C003F022C004F0A2EC33
:10076E0006F023C0D9FF24C0DAFFDE2A000EDD22F8
:10077E0093EF03F0120097EC08F0480E016E000E96
:10078E00026ED70E036E020E046E8CEC07F0530E43
:10079E00016E000E026EAE0E036E020E046E8CEC37
:1007AE0007F0000E466E400E476E46C05DF047C025
:1007BE005EF0080E596E000E5A6E090E5B6E000E3C
:1007CE005C6E20EE48F000EE01F0160EDBCFEBFF74
:1007DE00E806FCE257EC08F0480E016E000E026EC1
:1007EE00A30E036E020E046E8CEC07F0530E016E18
:1007FE00000E026EB50E036E020E046E8CEC07F048
:10080E00000E466E400E476E46C05DF047C05EF06D
:10081E00080E596E000E5A6E090E5B6E000E5C6E5F
:10082E0020EE48F000EE01F0160EDBCFEBFFE806EF
:10083E00FCE257EC08F0480E016E000E026ED10E6F
:10084E00036E020E046E8CEC07F0530E016E000E5A
:10085E00026EBC0E036E020E046E8CEC07F0000EE0
:10086E00466E400E476E46C05DF047C05EF0080E05
:10087E00596E000E5A6E090E5B6E000E5C6E20EE07
:10088E0048F000EE01F0160EDBCFEBFFE806FCE2BF
:10089E0057EC08F0480E016E000E026ECA0E036E83
:1008AE00020E046E8CEC07F0530E016E000E026EFB
:1008BE00C30E036E020E046E8CEC07F0000E466E35
:1008CE00400E476E46C05DF047C05EF0080E596E92
:1008DE00000E5A6E090E5B6E000E5C6E20EE48F036
:1008EE0000EE01F0160EDBCFEBFFE806FCE257EC54
:1008FE0008F068EC05F0BC0E406E020E416E57EC2F
:10090E0006F068EC05F0BC0E066E020E076EEDECFE
:10091E0006F0456E8C0E346E020E356E45C036F006
:10092E00376A84EC08F000EF00F020EEF9F010EEDC
:10093E000FF0060EDBCFE3FFE806FCE20CC01AF068
:10094E000DC01BF01A501B10D8A4B0EF04F0B2EF7C
:10095E0004F0B6EF04F00F0E1A6E000E1B6E1AC0E6
:10096E0001F01BC002F00EEC08F001C01EF002C038
:10097E001FF063C01CF064C01DF01DBEC9EF04F073
:10098E00CBEF04F0E0EF04F01E501C5C1D50800A0B
:10099E000E6E1F50800A0E58D8A0D8EF04F0DAEF72
:1009AE0004F0DCEF04F0E0EF04F01CC01EF01DC0FC
:1009BE001FF01EC01CF01FC01DF061C018F062C0F9
:1009CE0019F065B0EDEF04F0EFEF04F00CEF05F069
:1009DE00FDEF04F0000E026E200E016E0AC003F051
:1009EE000BC004F0A2EC06F01E4A1F2A18501E5C23
:1009FE001F50800A0E6E1950800A0E58D8A00AEFAA
:100A0E0005F00CEF05F0F1EF04F0000E176E000E7E
:100A1E00166E30EF05F01AC0F6FF1BC0F7FFF86A2E
:100A2E00010EF76403D00800F55005D0F6CFE9FFAC
:100A3E00F7CFEAFFEF500E6E0E50016E026A0AC03B
:100A4E0003F00BC004F0A2EC06F01A4A1B2A164A59
:100A5E00172A1C50165C1750800A0E6E1D50800A05
:100A6E000E58D8A03DEF05F03FEF05F012EF05F060
:100A7E0065A044EF05F046EF05F063EF05F054EF87
:100A8E0005F0000E026E200E016E0AC003F00BC0C0
:100A9E0004F0A2EC06F01E4A1F2A18501E5C1F50CE
:100AAE00800A0E6E1950800A0E58D8A061EF05F01C
:100ABE0063EF05F048EF05F01EC00AF01FC00BF003
:100ACE001200470E346E020E356E84EC08F0000EE6
:100ADE00426E000E416E9CEF05F0610E346E020EFA
:100AEE00356E41C001F042C002F0000E046E170ECA
:100AFE00036E71EC08F0800E0124366E000E02209B
:100B0E00376E41C001F042C002F0000E046E170EA7
:100B1E00036E71EC08F08B0E0124386E000E02206D
:100B2E00396E84EC08F0414A422A0001F8513E6EBB
:100B3E003F6A3E50415C4250800A406E3F50800AF0
:100B4E004058D8A0ADEF05F0AFEF05F074EF05F00B
:100B5E002A0E346E020E356E84EC08F0F8C043F0A7
:100B6E00446AE2EF05F0610E346E020E356E43C03C
:100B7E0001F044C002F0000E046E170E036E71EC0D
:100B8E0008F0800E0124366E000E0220376E43C030
:100B9E0001F044C002F0000E046E170E036E71ECED
:100BAE0008F08B0E0124386E000E0220396E84EC94
:100BBE0008F0434A442A0001F7513E6E3F6A3E5008
:100BCE00435C4450800A406E3F50800A4058D8A083
:100BDE00F3EF05F0F5EF05F0BAEF05F0120065A0A2
:100BEE00FBEF05F0FDEF05F007EF06F013C00AF07E
:100BFE0014C00BF011C00CF012C00DF035EC08F063
:100C0E0016BE0CEF06F00EEF06F014EF06F015C050
:100C1E001AF016C01BF018EF06F0000E1B6E000E39
:100C2E001A6E000E196E000E186E2AEF06F0000EE8
:100C3E00026E200E016E11C003F012C004F0A2EC81
:100C4E0006F0184A192A1A50185C1950800A176EA5
:100C5E001B50800A1758D8A037EF06F039EF06F070
:100C6E001EEF06F065B03EEF06F040EF06F04AEFDD
:100C7E0006F013C00AF014C00BF011C00CF012C035
:100C8E000DF035EC08F013C001F014C002F00EECBC
:100C9E0008F01A500124116E1B500220126E120021
:100CAE00020E0001F8615EEF06F060EF06F0A1EFB4
:100CBE0006F0F8C042F097EF06F0010E346E020E09
:100CCE00356E4250170D8B0EF324366E000EF42047
:100CDE00376E40C038F041C039F084EC08F0425015
:100CEE00170D8B0EF324016E000EF420026E40C021
:100CFE0003F041C004F025EC07F001500210D8A417
:100D0E008BEF06F08DEF06F096EF06F0F8C03EF092
:100D1E0042506FEC01F00001F82BA1EF06F0422AD1
:100D2E000001F751425CD8A09FEF06F0A1EF06F04C
:100D3E0064EF06F0120003500410D8B4A9EF06F0C9
:100D4E00ABEF06F0B4EF06F003500410D8A4B2EFE8
:100D5E0006F0B4EF06F0B9EF06F00150A1EC08F082
:100D6E00ECEF06F020EE04F00350D9260450DA2200
:100D7E00DE50DE10D8B4C6EF06F0C8EF06F0E3EF93
:100D8E0006F020EE04F00350D9260450DA2210EEBD
:100D9E0002F00350E1260450E222DE50E65CE650FB
:100DAE00800A096EDE50800A0958D8B0E1EF06F0CD
:100DBE00E3EF06F0ECEF06F020EE02F00350D9263A
:100DCE000450DA22DE2A000EDD221200000E086E1A
:100DDE0019EF07F00850170D8B0EF324016E000E5D
:100DEE00F420026E06C003F007C004F025EC07F0F5
:100DFE0001500210D8A406EF07F008EF07F018EF25
:100E0E0007F00001F851085CD8B010EF07F012EFB0
:100E1E0007F015EF07F0010E24EF07F0020E24EF96
:100E2E0007F0082A0001F751085CD8A021EF07F05F
:100E3E0023EF07F0F1EF06F0000E12002BEF07F094
:100E4E00014A022A034A042A01C0D9FF02C0DAFF6E
:100E5E00DF50056E03C0F6FF04C0F7FF0800F55023
:100E6E000518D8A43DEF07F03FEF07F04BEF07F062
:100E7E0001C0D9FF02C0DAFFDF50D8A449EF07F056
:100E8E004BEF07F027EF07F001C0D9FF02C0DAFFE2
:100E9E00DF50056E03C0F6FF04C0F7FF0800F550E3
:100EAE00055C016E026AD8A0020612002EC032F056
:100EBE002FC033F0000E606E000E5F6E79EF07F0FC
:100ECE002CC021F02DC022F0320E236E000E246EA7
:100EDE0030C025F031C026F0D7EC02F021505F264D
:100EEE002250602232C0F6FF33C0F7FF0800F550E3
:100EFE000009D8A485EF07F087EF07F067EF07F03A
:100F0E005FC02CF060C02DF0120003C007F004C0CB
:100F1E0008F001C009F002C00AF00750056E085033
:100F2E00066E074A082A05C0F6FF06C0F7FFF86AE4
:100F3E0009C0D9FF0AC0DAFF094A0A2A010EF7646E
:100F4E0003D00800F55005D0F6CFE9FFF7CFEAFF42
:100F5E00EF50DF6EDF50D8A4B7EF07F0B9EF07F010
:100F6E0094EF07F0120061506210D8A4C1EF07F0A1
:100F7E00C3EF07F0C9EF07F061C01FF062C020F0A9
:100F8E00CFEF07F0FF0E61241F6EFF0E6220206E62
:100F9E001EC000F1000E0101016F1CC011F01DC03A
:100FAE0012F0000E136E010E146E1FC015F020C04D
:100FBE0016F0F6EC05F011C01CF012C01DF0120078
:100FCE003A0EF66E110EF76E000EF86E00EEF9F098
:100FDE0010EE07F00900F5CFEEFFE550E150FAE113
:100FEE0001EE00F0200EEE6AE806FDE100EE80F064
:100FFE00790EEE6AE806FDE100EE5FF01F0EEE6A76
:10100E00E806FDE1000EF86E0001C2EF03F001C02C
:10101E0003F002C004F016EF08F0014A022A01C0E4
:10102E00F6FF02C0F7FFF86A010EF76403D008005E
:10103E00F55005D0F6CFE9FFF7CFEAFFEF500009E4
:10104E00D8A42CEF08F02EEF08F014EF08F00350A0
:10105E00015C016E04500258026E1200000E106EFA
:10106E00000E0F6E46EF08F00EC001F0026A0CC0C3
:10107E0003F00DC004F0A2EC06F00F4A102A0F5038
:10108E000A24D96E10500B20DA6EDF500E6E0E5001
:10109E00D8A454EF08F056EF08F03BEF08F012001A
:1010AE00050E0001F7615EEF08F060EF08F070EFDB
:1010BE0008F020EE01F0F751170D800EF324E16ECB
:1010CE00000EF420E26E160EDBCFE3FFE806FCE224
:1010DE00F72B120001500302F3CF05F0F4CF06F008
:1010EE0001500402F350062602500302F350062666
:1010FE0005C001F006C002F01200360E3C6E000E66
:10110E003D6E000E2C6E000E2D6E34C02EF035C0CE
:10111E002FF03C0E306E000E316E5DEC07F01200BB
:10112E00000E0001F76F000EF86F1200286E756C3E
:03113E006C290019
:02114200120099
:020000040020DA
:08000000FFFFFFFFFFFFFFFF00
:020000040030CA
:0E000000FF071F1FFF8385FF03C003E00340BF
:00000001FF
