:020000040000FA
:0400000010EF07F006
:10020000005B494E464F5D202D2D2D2D2D2D2D2D82
:100210002D2D2D2D20436865636B696E6720257336
:1002200020776974682025730A000A2D2D20524515
:10023000474953544552454420454D504C4F59452C
:100240004553202D2D0A000A2D2D20574F524B4982
:100250004E4720454D504C4F59454553202D2D0AB2
:1002600000456D706C6F7965653A202573202D20EF
:1002700025730A000A75696420493A2025730A002B
:100280007569642073773A2025730A0075696420C4
:100290004A3A2025730A004D65736153696C6C619D
:1002A000000031333333310000323736353300004C
:1002B0003338333837000031373137390000506177
:1002C000756C610000586F736500004C756100002B
:0102D000002D
:1002D2003D6E650E016E000E026E3D50170D800ED2
:1002E200F324036E000EF420046EE2EC06F0700EAE
:1002F200016E000E026E3D50170D8B0EF324036E3D
:10030200000EF420046EE2EC06F03D50170D950E3F
:10031200F324D96E000EF420DA6EDF507A6E3D506F
:10032200170D960EF324D96E000EF420DA6EDF500C
:100332007B6E3D50170D910EF324D96E000EF42002
:10034200DA6EDF50766E3D50170D920EF324D96EA1
:10035200000EF420DA6EDF50776E3D50170D930ECB
:10036200F324D96E000EF420DA6EDF50786E3D5021
:10037200170D940EF324D96E000EF420DA6EDF50BE
:10038200796E3D50170D800EF324016E000EF4209D
:10039200026E3C50170D800EF324036E000EF42003
:1003A200046EE2EC06F03D50170D8B0EF324016E45
:1003B200000EF420026E3C50170D8B0EF324036ED8
:1003C200000EF420046EE2EC06F03C50170D950E80
:1003D200F324D96E000EF420DA6E3D50170D950EFF
:1003E200F324E16E000EF420E26EDFCFE7FF3C5013
:1003F200170D960EF324D96E000EF420DA6E3D50DE
:10040200170D960EF324E16E000EF420E26EDFCF9C
:10041200E7FF3C50170D910EF324D96E000EF42025
:10042200DA6E3D50170D910EF324E16E000EF420AA
:10043200E26EDFCFE7FF3C50170D920EF324D96E28
:10044200000EF420DA6E3D50170D920EF324E16E89
:10045200000EF420E26EDFCFE7FF3C50170D930E43
:10046200F324D96E000EF420DA6E3D50170D930E70
:10047200F324E16E000EF420E26EDFCFE7FF3C5082
:10048200170D940EF324D96E000EF420DA6E3D504F
:10049200170D940EF324E16E000EF420E26EDFCF0E
:1004A200E7FF3C50170D800EF324016E000EF4207E
:1004B200026E650E036E000E046EE2EC06F03C5016
:1004C200170D8B0EF324016E000EF420026E700ED7
:1004D200036E000E046EE2EC06F03C50170D950E12
:1004E200F324D96E000EF420DA6E7AC0DFFF3C509E
:1004F200170D960EF324D96E000EF420DA6E7BC02F
:10050200DFFF3C50170D910EF324D96E000EF4203C
:10051200DA6E76C0DFFF3C50170D920EF324D96ECF
:10052200000EF420DA6E77C0DFFF3C50170D930EF9
:10053200F324D96E000EF420DA6E78C0DFFF3C504F
:10054200170D940EF324D96E000EF420DA6E79C0E2
:10055200DFFF740E326E020E336E3D50170D8B0E9E
:10056200F324346E000EF420356E8BEC07F08C0E03
:10057200326E020E336E3C50170D8B0EF324346E26
:10058200000EF420356E8BEC07F0800E326E020EF8
:10059200336E700E346E000E356E8BEC07F0120067
:1005A2009EEC07F0460E016E000E026ECB0E036E3D
:1005B200020E046EE2EC06F0510E016E000E026EA7
:1005C200A20E036E020E046EE2EC06F0000E446E02
:1005D200400E456E44C05BF045C05CF0080E576E9D
:1005E200000E586E090E596E000E5A6E20EE46F03D
:1005F20000EE01F0160EDBCFEBFFE806FCE25EEC4C
:1006020007F0460E016E000E026E970E036E020E8A
:10061200046EE2EC06F0510E016E000E026EA90E9F
:10062200036E020E046EE2EC06F0000E446E400E03
:10063200456E44C05BF045C05CF0080E576E000E7C
:10064200586E090E596E000E5A6E20EE46F000EEFC
:1006520001F0160EDBCFEBFFE806FCE25EEC07F0E2
:10066200460E016E000E026EC50E036E020E046E81
:10067200E2EC06F0510E016E000E026EB00E036E39
:10068200020E046EE2EC06F0000E446E400E456E61
:1006920044C05BF045C05CF0080E576E000E586E09
:1006A200090E596E000E5A6E20EE46F000EE01F071
:1006B200160EDBCFEBFFE806FCE25EEC07F0460E1F
:1006C200016E000E026EBE0E036E020E046EE2ECAE
:1006D20006F0510E016E000E026EB70E036E020E90
:1006E200046EE2EC06F0000E446E400E456E44C00D
:1006F2005BF045C05CF0080E576E000E586E090E96
:10070200596E000E5A6E20EE46F000EE01F0160E03
:10071200DBCFEBFFE806FCE25EEC07F01FEC05F036
:10072200B00E3E6E020E3F6EADEC05F01FEC05F012
:10073200B00E066E020E076E43EC06F000EF00F0FC
:1007420020EEF9F010EE0FF0060EDBCFE3FFE80625
:10075200FCE20CC01AF00DC01BF01A501B10D8A4FA
:10076200B5EF03F0B7EF03F0BBEF03F00F0E1A6E15
:10077200000E1B6E1AC001F01BC002F037EC07F02E
:1007820001C01EF002C01FF061C01CF062C01DF06B
:100792001DBECEEF03F0D0EF03F0E5EF03F01E50E5
:1007A2001C5C1D50800A0E6E1F50800A0E58D8A085
:1007B200DDEF03F0DFEF03F0E1EF03F0E5EF03F02D
:1007C2001CC01EF01DC01FF01EC01CF01FC01DF07B
:1007D2005FC018F060C019F063B0F2EF03F0F4EFFD
:1007E20003F011EF04F002EF04F0000E026E200E8F
:1007F200016E0AC003F00BC004F0F8EC05F01E4ACB
:100802001F2A18501E5C1F50800A0E6E1950800A53
:100812000E58D8A00FEF04F011EF04F0F6EF03F03A
:10082200000E176E000E166E35EF04F01AC0F6FFBA
:100832001BC0F7FFF86A010EF76403D00800F550F9
:1008420005D0F6CFE9FFF7CFEAFFEF500E6E0E505C
:10085200016E026A0AC003F00BC004F0F8EC05F066
:100862001A4A1B2A164A172A1C50165C1750800A6D
:100872000E6E1D50800A0E58D8A042EF04F044EFCD
:1008820004F017EF04F063A049EF04F04BEF04F01B
:1008920068EF04F059EF04F0000E026E200E016EB4
:1008A2000AC003F00BC004F0F8EC05F01E4A1F2A40
:1008B20018501E5C1F50800A0E6E1950800A0E5886
:1008C200D8A066EF04F068EF04F04DEF04F01EC00C
:1008D2000AF01FC00BF0120022C0D9FF23C0DAFFBA
:1008E200DECFF6FFDDCFF7FF0800F550250AD8A4CA
:1008F2007DEF04F07FEF04F003EF05F022C0D9FF93
:1009020023C0DAFFDE2A000EDD22000E606E000E2A
:100912005F6E5FC063F060C064F06168626822C0AD
:10092200D9FF23C0DAFFDECFF6FFDDCFF7FF0800E5
:10093200F550730AD8A4A0EF04F0A2EF04F0CDEFB3
:1009420004F022C0D9FF23C0DAFFDE2A000EDD2226
:1009520024C0D9FF25C0DAFFDFCF26F0020EDE2643
:10096200DFCF27F0000EDD2226C0D9FF27C0DAFF35
:10097200DECF28F0DDCF29F020C00AF021C00BF035
:1009820028C00CF029C00DF0A1EC03F00AC020F041
:100992000BC021F01EEF05F022C0D9FF23C0DAFF01
:1009A200DECFF6FFDDCFF7FF0800F550250AD8A409
:1009B200DDEF04F0DFEF04F0F6EF04F022C0D9FF20
:1009C20023C0DAFFDE2A000EDD22000E026E250EA3
:1009D200016E20C003F021C004F0F8EC05F0000E17
:1009E200216E010E206E1EEF05F022C0D9FF23C03A
:1009F200DAFFDE2A000EDD22000E216E000E206ECE
:100A02001EEF05F022C0D9FF23C0DAFFDECFF6FFCA
:100A1200DDCFF7FF0800F550016E026A20C003F037
:100A220021C004F0F8EC05F022C0D9FF23C0DAFFA0
:100A3200DE2A000EDD22F0EF04F01200470E326EC5
:100A4200020E336E8BEC07F0000E406E000E3F6E0E
:100A520053EF05F0610E326E020E336E3FC001F0AD
:100A620040C002F0000E046E170E036E78EC07F021
:100A7200800E0124346E000E0220356E3FC001F05C
:100A820040C002F0000E046E170E036E78EC07F001
:100A92008B0E0124366E000E0220376E8BEC07F0AF
:100AA2003F4A402A0001F8513C6E3D6A3C503F5C8F
:100AB2004050800A3E6E3D50800A3E58D8A064EFF6
:100AC20005F066EF05F02BEF05F02A0E326E020EEE
:100AD200336E8BEC07F0F8C041F0426A99EF05F0F3
:100AE200610E326E020E336E41C001F042C002F05E
:100AF200000E046E170E036E78EC07F0800E0124D0
:100B0200346E000E0220356E41C001F042C002F088
:100B1200000E046E170E036E78EC07F08B0E0124A4
:100B2200366E000E0220376E8BEC07F0414A422AE5
:100B32000001F7513C6E3D6A3C50415C4250800AD4
:100B42003E6E3D50800A3E58D8A0AAEF05F0ACEFA9
:100B520005F071EF05F01200020E0001F861B4EF2A
:100B620005F0B6EF05F0F7EF05F0F8C040F0EDEF55
:100B720005F0010E326E020E336E4050170D8B0ED1
:100B8200F324346E000EF420356E3EC036F03FC0C2
:100B920037F08BEC07F04050170D8B0EF324016EEB
:100BA200000EF420026E3EC003F03FC004F07BEC66
:100BB20006F001500210D8A4E1EF05F0E3EF05F0D2
:100BC200ECEF05F0F8C03CF0405069EC01F0000198
:100BD200F82BF7EF05F0402A0001F751405CD8A04E
:100BE200F5EF05F0F7EF05F0BAEF05F0120003504C
:100BF2000410D8B4FFEF05F001EF06F00AEF06F09B
:100C020003500410D8A408EF06F00AEF06F00FEF25
:100C120006F00150A8EC07F042EF06F020EE04F0D7
:100C22000350D9260450DA22DE50DE10D8B41CEF6D
:100C320006F01EEF06F039EF06F020EE04F0035046
:100C4200D9260450DA2210EE02F00350E1260450B5
:100C5200E222DE50E65CE650800A096EDE50800A2F
:100C62000958D8B037EF06F039EF06F042EF06F038
:100C720020EE02F00350D9260450DA22DE2A000EBA
:100C8200DD221200000E086E6FEF06F00850170DFD
:100C92008B0EF324016E000EF420026E06C003F0E8
:100CA20007C004F07BEC06F001500210D8A45CEF00
:100CB20006F05EEF06F06EEF06F00001F851085CF8
:100CC200D8B066EF06F068EF06F06BEF06F0010EA3
:100CD2007AEF06F0020E7AEF06F0082A0001F751C9
:100CE200085CD8A077EF06F079EF06F047EF06F040
:100CF200000E120081EF06F0014A022A034A042A7A
:100D020001C0D9FF02C0DAFFDF50056E03C0F6FF53
:100D120004C0F7FF0800F5500518D8A493EF06F0B9
:100D220095EF06F0A1EF06F001C0D9FF02C0DAFF8D
:100D3200DF50D8A49FEF06F0A1EF06F07DEF06F09A
:100D420001C0D9FF02C0DAFFDF50056E03C0F6FF13
:100D520004C0F7FF0800F550055C016E026AD8A0D6
:100D6200020612002CC030F02DC031F0000E5E6E73
:100D7200000E5D6ECFEF06F02AC020F02BC021F0EE
:100D8200300E226E000E236E2EC024F02FC025F0EE
:100D92006DEC04F020505D2621505E2230C0F6FF3B
:100DA20031C0F7FF0800F5500009D8A4DBEF06F0C8
:100DB200DDEF06F0BDEF06F05DC02AF05EC02BF05D
:100DC200120003C007F004C008F001C009F002C01D
:100DD2000AF00750056E0850066E074A082A05C039
:100DE200F6FF06C0F7FFF86A09C0D9FF0AC0DAFFAA
:100DF200094A0A2A010EF76403D00800F55005D00B
:100E0200F6CFE9FFF7CFEAFFEF50DF6EDF50D8A44D
:100E12000DEF07F00FEF07F0EAEF06F01200480EB1
:100E2200F66E0F0EF76E000EF86E00EEF9F010EE91
:100E320007F00900F5CFEEFFE550E150FAE101EECF
:100E420000F0200EEE6AE806FDE100EE80F0790E79
:100E5200EE6AE806FDE100EE5DF01F0EEE6AE806BE
:100E6200FDE1000EF86E0001D1EF02F001C003F0C7
:100E720002C004F03FEF07F0014A022A01C0F6FF68
:100E820002C0F7FFF86A010EF76403D00800F550BC
:100E920005D0F6CFE9FFF7CFEAFFEF500009D8A45B
:100EA20055EF07F057EF07F03DEF07F00350015CF5
:100EB200016E04500258026E1200050E0001F76125
:100EC20065EF07F067EF07F077EF07F020EE01F02C
:100ED200F751170D800EF324E16E000EF420E26E3E
:100EE200160EDBCFE3FFE806FCE2F72B12000150FF
:100EF2000302F3CF05F0F4CF06F001500402F350E1
:100F0200062602500302F350062605C001F006C071
:100F120002F01200340E3A6E000E3B6E000E2A6E84
:100F2200000E2B6E32C02CF033C02DF03A0E2E6E16
:100F3200000E2F6EB3EC06F01200000E0001F76FE8
:0D0F4200000EF86F1200286E756C6C29000F
:020F500012008D
:020000040020DA
:08000000FFFFFFFFFFFFFFFF00
:020000040030CA
:0E000000FF071F1FFF8385FF03C003E00340BF
:00000001FF
